{
  "contractName": "DecentralBank",
  "abi": [
    {
      "inputs": [
        {
          "internalType": "contract Reward",
          "name": "_reward",
          "type": "address"
        },
        {
          "internalType": "contract Tether",
          "name": "_tether",
          "type": "address"
        }
      ],
      "stateMutability": "nonpayable",
      "type": "constructor"
    },
    {
      "inputs": [
        {
          "internalType": "address",
          "name": "",
          "type": "address"
        }
      ],
      "name": "hasStaked",
      "outputs": [
        {
          "internalType": "bool",
          "name": "",
          "type": "bool"
        }
      ],
      "stateMutability": "view",
      "type": "function",
      "constant": true
    },
    {
      "inputs": [
        {
          "internalType": "address",
          "name": "",
          "type": "address"
        }
      ],
      "name": "isStaking",
      "outputs": [
        {
          "internalType": "bool",
          "name": "",
          "type": "bool"
        }
      ],
      "stateMutability": "view",
      "type": "function",
      "constant": true
    },
    {
      "inputs": [],
      "name": "name",
      "outputs": [
        {
          "internalType": "string",
          "name": "",
          "type": "string"
        }
      ],
      "stateMutability": "view",
      "type": "function",
      "constant": true
    },
    {
      "inputs": [],
      "name": "owner",
      "outputs": [
        {
          "internalType": "address",
          "name": "",
          "type": "address"
        }
      ],
      "stateMutability": "view",
      "type": "function",
      "constant": true
    },
    {
      "inputs": [],
      "name": "reward",
      "outputs": [
        {
          "internalType": "contract Reward",
          "name": "",
          "type": "address"
        }
      ],
      "stateMutability": "view",
      "type": "function",
      "constant": true
    },
    {
      "inputs": [
        {
          "internalType": "uint256",
          "name": "",
          "type": "uint256"
        }
      ],
      "name": "stakers",
      "outputs": [
        {
          "internalType": "address",
          "name": "",
          "type": "address"
        }
      ],
      "stateMutability": "view",
      "type": "function",
      "constant": true
    },
    {
      "inputs": [
        {
          "internalType": "address",
          "name": "",
          "type": "address"
        }
      ],
      "name": "stakingBalance",
      "outputs": [
        {
          "internalType": "uint256",
          "name": "",
          "type": "uint256"
        }
      ],
      "stateMutability": "view",
      "type": "function",
      "constant": true
    },
    {
      "inputs": [],
      "name": "tether",
      "outputs": [
        {
          "internalType": "contract Tether",
          "name": "",
          "type": "address"
        }
      ],
      "stateMutability": "view",
      "type": "function",
      "constant": true
    },
    {
      "inputs": [
        {
          "internalType": "uint256",
          "name": "_amount",
          "type": "uint256"
        }
      ],
      "name": "depositTokens",
      "outputs": [],
      "stateMutability": "nonpayable",
      "type": "function"
    },
    {
      "inputs": [],
      "name": "unStakeToken",
      "outputs": [],
      "stateMutability": "nonpayable",
      "type": "function"
    },
    {
      "inputs": [],
      "name": "issueToken",
      "outputs": [],
      "stateMutability": "nonpayable",
      "type": "function"
    }
  ],
  "bytecode": "0x60806040526040518060400160405280600e81526020017f446563656e7472616c2042616e6b000000000000000000000000000000000000815250600090805190602001906200005192919062000150565b503480156200005f57600080fd5b50604051620014f8380380620014f88339818101604052810190620000859190620002c3565b81600360006101000a81548173ffffffffffffffffffffffffffffffffffffffff021916908373ffffffffffffffffffffffffffffffffffffffff16021790555080600260006101000a81548173ffffffffffffffffffffffffffffffffffffffff021916908373ffffffffffffffffffffffffffffffffffffffff16021790555033600160006101000a81548173ffffffffffffffffffffffffffffffffffffffff021916908373ffffffffffffffffffffffffffffffffffffffff16021790555050506200036f565b8280546200015e9062000339565b90600052602060002090601f016020900481019282620001825760008555620001ce565b82601f106200019d57805160ff1916838001178555620001ce565b82800160010185558215620001ce579182015b82811115620001cd578251825591602001919060010190620001b0565b5b509050620001dd9190620001e1565b5090565b5b80821115620001fc576000816000905550600101620001e2565b5090565b600080fd5b600073ffffffffffffffffffffffffffffffffffffffff82169050919050565b6000620002328262000205565b9050919050565b6000620002468262000225565b9050919050565b620002588162000239565b81146200026457600080fd5b50565b60008151905062000278816200024d565b92915050565b60006200028b8262000225565b9050919050565b6200029d816200027e565b8114620002a957600080fd5b50565b600081519050620002bd8162000292565b92915050565b60008060408385031215620002dd57620002dc62000200565b5b6000620002ed8582860162000267565b92505060206200030085828601620002ac565b9150509250929050565b7f4e487b7100000000000000000000000000000000000000000000000000000000600052602260045260246000fd5b600060028204905060018216806200035257607f821691505b602082108114156200036957620003686200030a565b5b50919050565b611179806200037f6000396000f3fe608060405234801561001057600080fd5b50600436106100a95760003560e01c80636f49712b116100715780636f49712b146101425780638da5cb5b14610172578063a1ee8c7814610190578063c93c8f341461019a578063dd49756e146101ca578063fd5e6dd1146101e6576100a9565b806306fdde03146100ae578063228cb733146100cc57806345bc78ab146100ea5780634aa3f6241461011a5780635efc071a14610124575b600080fd5b6100b6610216565b6040516100c39190610b0d565b60405180910390f35b6100d46102a4565b6040516100e19190610bae565b60405180910390f35b61010460048036038101906100ff9190610c0c565b6102ca565b6040516101119190610c52565b60405180910390f35b6101226102e2565b005b61012c6104b9565b6040516101399190610c8e565b60405180910390f35b61015c60048036038101906101579190610c0c565b6104df565b6040516101699190610cc4565b60405180910390f35b61017a6104ff565b6040516101879190610cee565b60405180910390f35b610198610525565b005b6101b460048036038101906101af9190610c0c565b61072a565b6040516101c19190610cc4565b60405180910390f35b6101e460048036038101906101df9190610d35565b61074a565b005b61020060048036038101906101fb9190610d35565b610a35565b60405161020d9190610cee565b60405180910390f35b6000805461022390610d91565b80601f016020809104026020016040519081016040528092919081815260200182805461024f90610d91565b801561029c5780601f106102715761010080835404028352916020019161029c565b820191906000526020600020905b81548152906001019060200180831161027f57829003601f168201915b505050505081565b600360009054906101000a900473ffffffffffffffffffffffffffffffffffffffff1681565b60056020528060005260406000206000915090505481565b6000600560003373ffffffffffffffffffffffffffffffffffffffff1673ffffffffffffffffffffffffffffffffffffffff16815260200190815260200160002054905060008111610369576040517f08c379a000000000000000000000000000000000000000000000000000000000815260040161036090610e35565b60405180910390fd5b600260009054906101000a900473ffffffffffffffffffffffffffffffffffffffff1673ffffffffffffffffffffffffffffffffffffffff1663a9059cbb33836040518363ffffffff1660e01b81526004016103c6929190610e55565b602060405180830381600087803b1580156103e057600080fd5b505af11580156103f4573d6000803e3d6000fd5b505050506040513d601f19601f820116820180604052508101906104189190610eaa565b506000600560003373ffffffffffffffffffffffffffffffffffffffff1673ffffffffffffffffffffffffffffffffffffffff168152602001908152602001600020819055506000600760003373ffffffffffffffffffffffffffffffffffffffff1673ffffffffffffffffffffffffffffffffffffffff16815260200190815260200160002060006101000a81548160ff02191690831515021790555050565b600260009054906101000a900473ffffffffffffffffffffffffffffffffffffffff1681565b60076020528060005260406000206000915054906101000a900460ff1681565b600160009054906101000a900473ffffffffffffffffffffffffffffffffffffffff1681565b600160009054906101000a900473ffffffffffffffffffffffffffffffffffffffff1673ffffffffffffffffffffffffffffffffffffffff163373ffffffffffffffffffffffffffffffffffffffff16146105b5576040517f08c379a00000000000000000000000000000000000000000000000000000000081526004016105ac90610f23565b60405180910390fd5b60005b600480549050811015610727576000600482815481106105db576105da610f43565b5b9060005260206000200160009054906101000a900473ffffffffffffffffffffffffffffffffffffffff16905060006009600560008473ffffffffffffffffffffffffffffffffffffffff1673ffffffffffffffffffffffffffffffffffffffff168152602001908152602001600020546106569190610fd0565b9050600081111561071257600360009054906101000a900473ffffffffffffffffffffffffffffffffffffffff1673ffffffffffffffffffffffffffffffffffffffff1663a9059cbb83836040518363ffffffff1660e01b81526004016106be929190610e55565b602060405180830381600087803b1580156106d857600080fd5b505af11580156106ec573d6000803e3d6000fd5b505050506040513d601f19601f820116820180604052508101906107109190610eaa565b505b5050808061071f90611001565b9150506105b8565b50565b60066020528060005260406000206000915054906101000a900460ff1681565b6000811161078d576040517f08c379a000000000000000000000000000000000000000000000000000000000815260040161078490611096565b60405180910390fd5b600260009054906101000a900473ffffffffffffffffffffffffffffffffffffffff1673ffffffffffffffffffffffffffffffffffffffff166323b872dd3330846040518463ffffffff1660e01b81526004016107ec939291906110b6565b602060405180830381600087803b15801561080657600080fd5b505af115801561081a573d6000803e3d6000fd5b505050506040513d601f19601f8201168201806040525081019061083e9190610eaa565b5080600560003373ffffffffffffffffffffffffffffffffffffffff1673ffffffffffffffffffffffffffffffffffffffff1681526020019081526020016000205461088a91906110ed565b600560003373ffffffffffffffffffffffffffffffffffffffff1673ffffffffffffffffffffffffffffffffffffffff16815260200190815260200160002081905550600660003373ffffffffffffffffffffffffffffffffffffffff1673ffffffffffffffffffffffffffffffffffffffff16815260200190815260200160002060009054906101000a900460ff16610982576004339080600181540180825580915050600190039060005260206000200160009091909190916101000a81548173ffffffffffffffffffffffffffffffffffffffff021916908373ffffffffffffffffffffffffffffffffffffffff1602179055505b6001600760003373ffffffffffffffffffffffffffffffffffffffff1673ffffffffffffffffffffffffffffffffffffffff16815260200190815260200160002060006101000a81548160ff0219169083151502179055506001600660003373ffffffffffffffffffffffffffffffffffffffff1673ffffffffffffffffffffffffffffffffffffffff16815260200190815260200160002060006101000a81548160ff02191690831515021790555050565b60048181548110610a4557600080fd5b906000526020600020016000915054906101000a900473ffffffffffffffffffffffffffffffffffffffff1681565b600081519050919050565b600082825260208201905092915050565b60005b83811015610aae578082015181840152602081019050610a93565b83811115610abd576000848401525b50505050565b6000601f19601f8301169050919050565b6000610adf82610a74565b610ae98185610a7f565b9350610af9818560208601610a90565b610b0281610ac3565b840191505092915050565b60006020820190508181036000830152610b278184610ad4565b905092915050565b600073ffffffffffffffffffffffffffffffffffffffff82169050919050565b6000819050919050565b6000610b74610b6f610b6a84610b2f565b610b4f565b610b2f565b9050919050565b6000610b8682610b59565b9050919050565b6000610b9882610b7b565b9050919050565b610ba881610b8d565b82525050565b6000602082019050610bc36000830184610b9f565b92915050565b600080fd5b6000610bd982610b2f565b9050919050565b610be981610bce565b8114610bf457600080fd5b50565b600081359050610c0681610be0565b92915050565b600060208284031215610c2257610c21610bc9565b5b6000610c3084828501610bf7565b91505092915050565b6000819050919050565b610c4c81610c39565b82525050565b6000602082019050610c676000830184610c43565b92915050565b6000610c7882610b7b565b9050919050565b610c8881610c6d565b82525050565b6000602082019050610ca36000830184610c7f565b92915050565b60008115159050919050565b610cbe81610ca9565b82525050565b6000602082019050610cd96000830184610cb5565b92915050565b610ce881610bce565b82525050565b6000602082019050610d036000830184610cdf565b92915050565b610d1281610c39565b8114610d1d57600080fd5b50565b600081359050610d2f81610d09565b92915050565b600060208284031215610d4b57610d4a610bc9565b5b6000610d5984828501610d20565b91505092915050565b7f4e487b7100000000000000000000000000000000000000000000000000000000600052602260045260246000fd5b60006002820490506001821680610da957607f821691505b60208210811415610dbd57610dbc610d62565b5b50919050565b7f7374616b696e672062616c616e6365206d75747320626520677265617465722060008201527f7468616e207a65726f0000000000000000000000000000000000000000000000602082015250565b6000610e1f602983610a7f565b9150610e2a82610dc3565b604082019050919050565b60006020820190508181036000830152610e4e81610e12565b9050919050565b6000604082019050610e6a6000830185610cdf565b610e776020830184610c43565b9392505050565b610e8781610ca9565b8114610e9257600080fd5b50565b600081519050610ea481610e7e565b92915050565b600060208284031215610ec057610ebf610bc9565b5b6000610ece84828501610e95565b91505092915050565b7f43616c6c6572206d75737420626520746865206f776e65720000000000000000600082015250565b6000610f0d601883610a7f565b9150610f1882610ed7565b602082019050919050565b60006020820190508181036000830152610f3c81610f00565b9050919050565b7f4e487b7100000000000000000000000000000000000000000000000000000000600052603260045260246000fd5b7f4e487b7100000000000000000000000000000000000000000000000000000000600052601260045260246000fd5b7f4e487b7100000000000000000000000000000000000000000000000000000000600052601160045260246000fd5b6000610fdb82610c39565b9150610fe683610c39565b925082610ff657610ff5610f72565b5b828204905092915050565b600061100c82610c39565b91507fffffffffffffffffffffffffffffffffffffffffffffffffffffffffffffffff82141561103f5761103e610fa1565b5b600182019050919050565b7f616d6f756e742063616e6e6f7420626520300000000000000000000000000000600082015250565b6000611080601283610a7f565b915061108b8261104a565b602082019050919050565b600060208201905081810360008301526110af81611073565b9050919050565b60006060820190506110cb6000830186610cdf565b6110d86020830185610cdf565b6110e56040830184610c43565b949350505050565b60006110f882610c39565b915061110383610c39565b9250827fffffffffffffffffffffffffffffffffffffffffffffffffffffffffffffffff0382111561113857611137610fa1565b5b82820190509291505056fea264697066735822122044c618c49c256e759fbafea535d32e885c82cad0ac50ae49bb5196c46f25066564736f6c63430008090033",
  "immutableReferences": {},
  "source": "// SPDX-License-Identifier: Unlicense\r\npragma solidity ^0.8.7;\r\n\r\nimport './Reward.sol';\r\nimport './Tether.sol';\r\n\r\ncontract DecentralBank {\r\n    string public name = \"Decentral Bank\";\r\n    address public owner;\r\n    Tether public tether;\r\n    Reward public reward;\r\n\r\n    address [] public stakers;\r\n\r\n    mapping(address => uint) public stakingBalance;\r\n    mapping(address => bool) public hasStaked;\r\n    mapping(address => bool) public isStaking;\r\n\r\n    constructor(Reward _reward, Tether _tether) {\r\n        reward = _reward;\r\n        tether = _tether;\r\n        owner = msg.sender;\r\n    }\r\n\r\n    function depositTokens(uint _amount) public {\r\n\r\n        // require staking amount to be greater than zero\r\n        require(_amount > 0, 'amount cannot be 0');\r\n\r\n        // Transfer tether tokens to this contract address for staking\r\n        tether.transferFrom(msg.sender, address(this), _amount);\r\n\r\n        // Update Staking Balance\r\n        stakingBalance[msg.sender] = stakingBalance[msg.sender] + _amount;\r\n\r\n        if(!hasStaked[msg.sender]) {\r\n            stakers.push(msg.sender);\r\n        }\r\n\r\n        // Update Staking Balance\r\n            isStaking[msg.sender] = true;\r\n            hasStaked[msg.sender] = true;\r\n    }\r\n\r\n    function unStakeToken() public {\r\n        uint balance = stakingBalance[msg.sender];\r\n        require(balance > 0, \"staking balance muts be greater than zero\");\r\n        tether.transfer(msg.sender, balance);\r\n\r\n        // reset staking balance\r\n        stakingBalance[msg.sender] = 0;\r\n\r\n        // update staking status\r\n        isStaking[msg.sender] = false;\r\n    }\r\n\r\n    function issueToken() public {\r\n        require(msg.sender == owner, \"Caller must be the owner\");\r\n        for (uint256 i = 0; i < stakers.length; i++) {\r\n            address recipient = stakers[i];\r\n            uint balance = stakingBalance[recipient] / 9;\r\n\r\n            if(balance > 0) reward.transfer(recipient, balance);\r\n        }\r\n\r\n    }\r\n\r\n}",
  "sourcePath": "C:\\Users\\USER\\Desktop\\dapps\\defi-app\\src\\contracts\\DecentralBank.sol",
  "compiler": {
    "name": "solc",
    "version": "0.8.9+commit.e5eed63a.Emscripten.clang"
  },
  "schemaVersion": "3.4.3",
  "updatedAt": "2021-10-04T00:06:58.455Z",
  "networkType": "ethereum",
  "devdoc": {
    "kind": "dev",
    "methods": {},
    "version": 1
  },
  "userdoc": {
    "kind": "user",
    "methods": {},
    "version": 1
  }
}